{
  "_format": "hh-sol-artifact-1",
  "contractName": "DeCloud",
  "sourceName": "contracts/DeCloud.sol",
  "abi": [
    {
      "inputs": [],
      "stateMutability": "nonpayable",
      "type": "constructor"
    },
    {
      "anonymous": false,
      "inputs": [
        {
          "indexed": false,
          "internalType": "uint256",
          "name": "fileId",
          "type": "uint256"
        },
        {
          "indexed": false,
          "internalType": "string",
          "name": "fileHash",
          "type": "string"
        },
        {
          "indexed": false,
          "internalType": "uint256",
          "name": "fileSize",
          "type": "uint256"
        },
        {
          "indexed": false,
          "internalType": "string",
          "name": "fileType",
          "type": "string"
        },
        {
          "indexed": false,
          "internalType": "string",
          "name": "fileName",
          "type": "string"
        },
        {
          "indexed": false,
          "internalType": "string",
          "name": "fileDescription",
          "type": "string"
        },
        {
          "indexed": false,
          "internalType": "uint256",
          "name": "uploadTime",
          "type": "uint256"
        },
        {
          "indexed": false,
          "internalType": "address",
          "name": "uploader",
          "type": "address"
        }
      ],
      "name": "FileUploaded",
      "type": "event"
    },
    {
      "inputs": [],
      "name": "fetchUserFiles",
      "outputs": [
        {
          "components": [
            {
              "internalType": "uint256",
              "name": "fileId",
              "type": "uint256"
            },
            {
              "internalType": "string",
              "name": "fileHash",
              "type": "string"
            },
            {
              "internalType": "uint256",
              "name": "fileSize",
              "type": "uint256"
            },
            {
              "internalType": "string",
              "name": "fileType",
              "type": "string"
            },
            {
              "internalType": "string",
              "name": "fileName",
              "type": "string"
            },
            {
              "internalType": "string",
              "name": "fileDescription",
              "type": "string"
            },
            {
              "internalType": "uint256",
              "name": "uploadTime",
              "type": "uint256"
            },
            {
              "internalType": "address",
              "name": "uploader",
              "type": "address"
            }
          ],
          "internalType": "struct DeCloud.File[]",
          "name": "",
          "type": "tuple[]"
        }
      ],
      "stateMutability": "view",
      "type": "function"
    },
    {
      "inputs": [
        {
          "internalType": "string",
          "name": "_fileHash",
          "type": "string"
        },
        {
          "internalType": "uint256",
          "name": "_fileSize",
          "type": "uint256"
        },
        {
          "internalType": "string",
          "name": "_fileType",
          "type": "string"
        },
        {
          "internalType": "string",
          "name": "_fileName",
          "type": "string"
        },
        {
          "internalType": "string",
          "name": "_fileDescription",
          "type": "string"
        }
      ],
      "name": "uploadFile",
      "outputs": [],
      "stateMutability": "nonpayable",
      "type": "function"
    }
  ],
  "bytecode": "0x608060405234801561001057600080fd5b50600160008190555033600260006101000a81548173ffffffffffffffffffffffffffffffffffffffff021916908373ffffffffffffffffffffffffffffffffffffffff1602179055506114aa806100696000396000f3fe608060405234801561001057600080fd5b50600436106100365760003560e01c806331d1f1851461003b578063e82d9d3314610059575b600080fd5b610043610075565b6040516100509190610c9e565b60405180910390f35b610073600480360381019061006e9190610e35565b610545565b005b606060006100836001610902565b905060008060005b8381101561012c573373ffffffffffffffffffffffffffffffffffffffff16600360006001846100bb9190610f4f565b815260200190815260200160002060070160009054906101000a900473ffffffffffffffffffffffffffffffffffffffff1673ffffffffffffffffffffffffffffffffffffffff161415610119576001836101169190610f4f565b92505b808061012490610fa5565b91505061008b565b5060008267ffffffffffffffff81111561014957610148610cde565b5b60405190808252806020026020018201604052801561018257816020015b61016f610926565b8152602001906001900390816101675790505b50905060005b8481101561053a573373ffffffffffffffffffffffffffffffffffffffff16600360006001846101b89190610f4f565b815260200190815260200160002060070160009054906101000a900473ffffffffffffffffffffffffffffffffffffffff1673ffffffffffffffffffffffffffffffffffffffff1614156105275760006001826102159190610f4f565b905060006003600083815260200190815260200160002090508060405180610100016040529081600082015481526020016001820180546102559061101d565b80601f01602080910402602001604051908101604052809291908181526020018280546102819061101d565b80156102ce5780601f106102a3576101008083540402835291602001916102ce565b820191906000526020600020905b8154815290600101906020018083116102b157829003601f168201915b50505050508152602001600282015481526020016003820180546102f19061101d565b80601f016020809104026020016040519081016040528092919081815260200182805461031d9061101d565b801561036a5780601f1061033f5761010080835404028352916020019161036a565b820191906000526020600020905b81548152906001019060200180831161034d57829003601f168201915b505050505081526020016004820180546103839061101d565b80601f01602080910402602001604051908101604052809291908181526020018280546103af9061101d565b80156103fc5780601f106103d1576101008083540402835291602001916103fc565b820191906000526020600020905b8154815290600101906020018083116103df57829003601f168201915b505050505081526020016005820180546104159061101d565b80601f01602080910402602001604051908101604052809291908181526020018280546104419061101d565b801561048e5780601f106104635761010080835404028352916020019161048e565b820191906000526020600020905b81548152906001019060200180831161047157829003601f168201915b50505050508152602001600682015481526020016007820160009054906101000a900473ffffffffffffffffffffffffffffffffffffffff1673ffffffffffffffffffffffffffffffffffffffff1673ffffffffffffffffffffffffffffffffffffffff168152505084868151811061050a5761050961104f565b5b60200260200101819052506001856105229190610f4f565b945050505b808061053290610fa5565b915050610188565b508094505050505090565b6002600054141561058b576040517f08c379a0000000000000000000000000000000000000000000000000000000008152600401610582906110db565b60405180910390fd5b600260008190555060008551116105d7576040517f08c379a00000000000000000000000000000000000000000000000000000000081526004016105ce90611147565b60405180910390fd5b600083511161061b576040517f08c379a0000000000000000000000000000000000000000000000000000000008152600401610612906111b3565b60405180910390fd5b600081511161065f576040517f08c379a00000000000000000000000000000000000000000000000000000000081526004016106569061121f565b60405180910390fd5b60008251116106a3576040517f08c379a000000000000000000000000000000000000000000000000000000000815260040161069a9061128b565b60405180910390fd5b600073ffffffffffffffffffffffffffffffffffffffff163373ffffffffffffffffffffffffffffffffffffffff161415610713576040517f08c379a000000000000000000000000000000000000000000000000000000000815260040161070a906112f7565b60405180910390fd5b60008411610756576040517f08c379a000000000000000000000000000000000000000000000000000000000815260040161074d90611363565b60405180910390fd5b6107606001610910565b600061076c6001610902565b90506040518061010001604052808281526020018781526020018681526020018581526020018481526020018381526020014281526020013373ffffffffffffffffffffffffffffffffffffffff16815250600360008381526020019081526020016000206000820151816000015560208201518160010190805190602001906107f7929190610981565b5060408201518160020155606082015181600301908051906020019061081e929190610981565b50608082015181600401908051906020019061083b929190610981565b5060a0820151816005019080519060200190610858929190610981565b5060c0820151816006015560e08201518160070160006101000a81548173ffffffffffffffffffffffffffffffffffffffff021916908373ffffffffffffffffffffffffffffffffffffffff1602179055509050507f6e95bbaa37a5fdec42a312e049dea2fe6160ebe659214d3409b4f91f164c2f5281878787878742336040516108ea9897969594939291906113da565b60405180910390a15060016000819055505050505050565b600081600001549050919050565b6001816000016000828254019250508190555050565b60405180610100016040528060008152602001606081526020016000815260200160608152602001606081526020016060815260200160008152602001600073ffffffffffffffffffffffffffffffffffffffff1681525090565b82805461098d9061101d565b90600052602060002090601f0160209004810192826109af57600085556109f6565b82601f106109c857805160ff19168380011785556109f6565b828001600101855582156109f6579182015b828111156109f55782518255916020019190600101906109da565b5b509050610a039190610a07565b5090565b5b80821115610a20576000816000905550600101610a08565b5090565b600081519050919050565b600082825260208201905092915050565b6000819050602082019050919050565b6000819050919050565b610a6381610a50565b82525050565b600081519050919050565b600082825260208201905092915050565b60005b83811015610aa3578082015181840152602081019050610a88565b83811115610ab2576000848401525b50505050565b6000601f19601f8301169050919050565b6000610ad482610a69565b610ade8185610a74565b9350610aee818560208601610a85565b610af781610ab8565b840191505092915050565b600073ffffffffffffffffffffffffffffffffffffffff82169050919050565b6000610b2d82610b02565b9050919050565b610b3d81610b22565b82525050565b600061010083016000830151610b5c6000860182610a5a565b5060208301518482036020860152610b748282610ac9565b9150506040830151610b896040860182610a5a565b5060608301518482036060860152610ba18282610ac9565b91505060808301518482036080860152610bbb8282610ac9565b91505060a083015184820360a0860152610bd58282610ac9565b91505060c0830151610bea60c0860182610a5a565b5060e0830151610bfd60e0860182610b34565b508091505092915050565b6000610c148383610b43565b905092915050565b6000602082019050919050565b6000610c3482610a24565b610c3e8185610a2f565b935083602082028501610c5085610a40565b8060005b85811015610c8c5784840389528151610c6d8582610c08565b9450610c7883610c1c565b925060208a01995050600181019050610c54565b50829750879550505050505092915050565b60006020820190508181036000830152610cb88184610c29565b905092915050565b6000604051905090565b600080fd5b600080fd5b600080fd5b600080fd5b7f4e487b7100000000000000000000000000000000000000000000000000000000600052604160045260246000fd5b610d1682610ab8565b810181811067ffffffffffffffff82111715610d3557610d34610cde565b5b80604052505050565b6000610d48610cc0565b9050610d548282610d0d565b919050565b600067ffffffffffffffff821115610d7457610d73610cde565b5b610d7d82610ab8565b9050602081019050919050565b82818337600083830152505050565b6000610dac610da784610d59565b610d3e565b905082815260208101848484011115610dc857610dc7610cd9565b5b610dd3848285610d8a565b509392505050565b600082601f830112610df057610def610cd4565b5b8135610e00848260208601610d99565b91505092915050565b610e1281610a50565b8114610e1d57600080fd5b50565b600081359050610e2f81610e09565b92915050565b600080600080600060a08688031215610e5157610e50610cca565b5b600086013567ffffffffffffffff811115610e6f57610e6e610ccf565b5b610e7b88828901610ddb565b9550506020610e8c88828901610e20565b945050604086013567ffffffffffffffff811115610ead57610eac610ccf565b5b610eb988828901610ddb565b935050606086013567ffffffffffffffff811115610eda57610ed9610ccf565b5b610ee688828901610ddb565b925050608086013567ffffffffffffffff811115610f0757610f06610ccf565b5b610f1388828901610ddb565b9150509295509295909350565b7f4e487b7100000000000000000000000000000000000000000000000000000000600052601160045260246000fd5b6000610f5a82610a50565b9150610f6583610a50565b9250827fffffffffffffffffffffffffffffffffffffffffffffffffffffffffffffffff03821115610f9a57610f99610f20565b5b828201905092915050565b6000610fb082610a50565b91507fffffffffffffffffffffffffffffffffffffffffffffffffffffffffffffffff821415610fe357610fe2610f20565b5b600182019050919050565b7f4e487b7100000000000000000000000000000000000000000000000000000000600052602260045260246000fd5b6000600282049050600182168061103557607f821691505b6020821081141561104957611048610fee565b5b50919050565b7f4e487b7100000000000000000000000000000000000000000000000000000000600052603260045260246000fd5b600082825260208201905092915050565b7f5265656e7472616e637947756172643a207265656e7472616e742063616c6c00600082015250565b60006110c5601f8361107e565b91506110d08261108f565b602082019050919050565b600060208201905081810360008301526110f4816110b8565b9050919050565b7f46696c6548617368206e6f7420666f756e640000000000000000000000000000600082015250565b600061113160128361107e565b915061113c826110fb565b602082019050919050565b6000602082019050818103600083015261116081611124565b9050919050565b7f46696c6554797065206e6f7420666f756e640000000000000000000000000000600082015250565b600061119d60128361107e565b91506111a882611167565b602082019050919050565b600060208201905081810360008301526111cc81611190565b9050919050565b7f46696c65204465736372697074696f6e206e6f7420666f756e64000000000000600082015250565b6000611209601a8361107e565b9150611214826111d3565b602082019050919050565b60006020820190508181036000830152611238816111fc565b9050919050565b7f46696c654e616d65206e6f7420666f756e640000000000000000000000000000600082015250565b600061127560128361107e565b91506112808261123f565b602082019050919050565b600060208201905081810360008301526112a481611268565b9050919050565b7f53656e6465722041646472657373206e6f7420666f756e640000000000000000600082015250565b60006112e160188361107e565b91506112ec826112ab565b602082019050919050565b60006020820190508181036000830152611310816112d4565b9050919050565b7f46696c65206e6f7420666f756e64000000000000000000000000000000000000600082015250565b600061134d600e8361107e565b915061135882611317565b602082019050919050565b6000602082019050818103600083015261137c81611340565b9050919050565b61138c81610a50565b82525050565b600061139d82610a69565b6113a7818561107e565b93506113b7818560208601610a85565b6113c081610ab8565b840191505092915050565b6113d481610b22565b82525050565b6000610100820190506113f0600083018b611383565b8181036020830152611402818a611392565b90506114116040830189611383565b81810360608301526114238188611392565b905081810360808301526114378187611392565b905081810360a083015261144b8186611392565b905061145a60c0830185611383565b61146760e08301846113cb565b999850505050505050505056fea2646970667358221220d55dc1b3870069b057758e1d0e26344c988cfe90a7cdea1064adc344b5f9d38064736f6c634300080a0033",
  "linkReferences": {},
  "deployedLinkReferences": {}
}